{
  "_format": "hh-sol-artifact-1",
  "contractName": "uploadStorage",
  "sourceName": "contracts/uploadStorage.sol",
  "abi": [
    {
      "inputs": [
        {
          "internalType": "uint256",
          "name": "_id",
          "type": "uint256"
        },
        {
          "internalType": "string",
          "name": "_hash",
          "type": "string"
        }
      ],
      "name": "addUpload",
      "outputs": [],
      "stateMutability": "nonpayable",
      "type": "function"
    },
    {
      "inputs": [
        {
          "internalType": "uint256",
          "name": "",
          "type": "uint256"
        }
      ],
      "name": "hashToId",
      "outputs": [
        {
          "internalType": "string",
          "name": "",
          "type": "string"
        }
      ],
      "stateMutability": "view",
      "type": "function"
    },
    {
      "inputs": [],
      "name": "retrieve",
      "outputs": [
        {
          "internalType": "string",
          "name": "",
          "type": "string"
        }
      ],
      "stateMutability": "view",
      "type": "function"
    },
    {
      "inputs": [
        {
          "internalType": "uint256",
          "name": "_id",
          "type": "uint256"
        }
      ],
      "name": "store",
      "outputs": [],
      "stateMutability": "nonpayable",
      "type": "function"
    },
    {
      "inputs": [
        {
          "internalType": "uint256",
          "name": "",
          "type": "uint256"
        }
      ],
      "name": "upload",
      "outputs": [
        {
          "internalType": "uint256",
          "name": "id",
          "type": "uint256"
        },
        {
          "internalType": "string",
          "name": "hash",
          "type": "string"
        }
      ],
      "stateMutability": "view",
      "type": "function"
    }
  ],
  "bytecode": "0x608060405234801561001057600080fd5b506107dc806100206000396000f3fe608060405234801561001057600080fd5b50600436106100575760003560e01c80630f7680ac1461005c5780632e64cec11461008d5780636057361d146100ab57806395ad8d01146100c75780639a4514ba146100e3575b600080fd5b6100766004803603810190610071919061048d565b610113565b604051610084929190610562565b60405180910390f35b6100956101cf565b6040516100a29190610592565b60405180910390f35b6100c560048036038101906100c0919061048d565b610261565b005b6100e160048036038101906100dc91906106e9565b61026b565b005b6100fd60048036038101906100f8919061048d565b610300565b60405161010a9190610592565b60405180910390f35b6002818154811061012357600080fd5b906000526020600020906002020160009150905080600001549080600101805461014c90610774565b80601f016020809104026020016040519081016040528092919081815260200182805461017890610774565b80156101c55780601f1061019a576101008083540402835291602001916101c5565b820191906000526020600020905b8154815290600101906020018083116101a857829003601f168201915b5050505050905082565b6060600180546101de90610774565b80601f016020809104026020016040519081016040528092919081815260200182805461020a90610774565b80156102575780601f1061022c57610100808354040283529160200191610257565b820191906000526020600020905b81548152906001019060200180831161023a57829003601f168201915b5050505050905090565b8060008190555050565b600260405180604001604052808481526020018381525090806001815401808255809150506001900390600052602060002090600202016000909190919091506000820151816000015560208201518160010190805190602001906102d19291906103a0565b505050806003600084815260200190815260200160002090805190602001906102fb9291906103a0565b505050565b6003602052806000526040600020600091509050805461031f90610774565b80601f016020809104026020016040519081016040528092919081815260200182805461034b90610774565b80156103985780601f1061036d57610100808354040283529160200191610398565b820191906000526020600020905b81548152906001019060200180831161037b57829003601f168201915b505050505081565b8280546103ac90610774565b90600052602060002090601f0160209004810192826103ce5760008555610415565b82601f106103e757805160ff1916838001178555610415565b82800160010185558215610415579182015b828111156104145782518255916020019190600101906103f9565b5b5090506104229190610426565b5090565b5b8082111561043f576000816000905550600101610427565b5090565b6000604051905090565b600080fd5b600080fd5b6000819050919050565b61046a81610457565b811461047557600080fd5b50565b60008135905061048781610461565b92915050565b6000602082840312156104a3576104a261044d565b5b60006104b184828501610478565b91505092915050565b6104c381610457565b82525050565b600081519050919050565b600082825260208201905092915050565b60005b838110156105035780820151818401526020810190506104e8565b83811115610512576000848401525b50505050565b6000601f19601f8301169050919050565b6000610534826104c9565b61053e81856104d4565b935061054e8185602086016104e5565b61055781610518565b840191505092915050565b600060408201905061057760008301856104ba565b81810360208301526105898184610529565b90509392505050565b600060208201905081810360008301526105ac8184610529565b905092915050565b600080fd5b600080fd5b7f4e487b7100000000000000000000000000000000000000000000000000000000600052604160045260246000fd5b6105f682610518565b810181811067ffffffffffffffff82111715610615576106146105be565b5b80604052505050565b6000610628610443565b905061063482826105ed565b919050565b600067ffffffffffffffff821115610654576106536105be565b5b61065d82610518565b9050602081019050919050565b82818337600083830152505050565b600061068c61068784610639565b61061e565b9050828152602081018484840111156106a8576106a76105b9565b5b6106b384828561066a565b509392505050565b600082601f8301126106d0576106cf6105b4565b5b81356106e0848260208601610679565b91505092915050565b60008060408385031215610700576106ff61044d565b5b600061070e85828601610478565b925050602083013567ffffffffffffffff81111561072f5761072e610452565b5b61073b858286016106bb565b9150509250929050565b7f4e487b7100000000000000000000000000000000000000000000000000000000600052602260045260246000fd5b6000600282049050600182168061078c57607f821691505b602082108114156107a05761079f610745565b5b5091905056fea26469706673582212207733ef275e69fdce36624ad2688727ecf614837f59ccbce05563b452043e604164736f6c634300080a0033",
  "linkReferences": {},
  "deployedLinkReferences": {}
}